:020000040800F2
:10000000C030002001010008EB2400084B2200084A
:10001000E92400086D0E00081141000800000000EE
:10002000000000000000000000000000ED300008AB
:10003000A50E000800000000ED240008613D000846
:100040001B0100081B0100081B0100081B01000820
:100050001B0100081B010008A70E00081B01000877
:100060001B0100081B0100081B0100081B01000800
:100070001B0100081B0100081B0100081B010008F0
:100080001B0100081B0100081B0100081B010008E0
:100090001B0100081B0100081B0100081B010008D0
:1000A0001B0100081B0100081B0100081B010008C0
:1000B0001B010008093E00081B0100081B01000885
:1000C0001B0100081B0100081B0100081B010008A0
:1000D0001B0100081B0100081B0100081B01000890
:1000E0001B0100081B0100081B010008DFF80CD0F1
:1000F00000F0A2F800480047CD700008C030002092
:100100000648804706480047FEE7FEE7FEE7FEE7B1
:10011000FEE7FEE7FEE7FEE7FEE7FEE7C13D00087B
:10012000ED00000810B5431A934209D283188818CD
:1001300003E010F8011D03F8011D521EF9D210BD95
:1001400040EA01039B0703D009E008C9121F08C059
:10015000042AFAD203E011F8013B00F8013B521ED9
:10016000F9D210BDD2B201E000F8012B491EFBD23A
:1001700070470022F6E710B513460A4604461946B2
:10018000FFF7F0FF204610BD30B5044600200346BF
:1001900000E05B1C934203D2E05CCD5C401BF8D0D6
:1001A00030BD034611F8012B00F8012B002AF9D1CC
:1001B000184670470246C9B200E0401C0378002B85
:1001C000FBD102E003788B4203D0401E9042F9D26B
:1001D000002070472DE9F0410E460546002400E05E
:1001E000641C285D00F021F80746305D00F01DF822
:1001F000381A02D1295D0029F2D1BDE8F08130B56D
:100200000B46014600202022012409E021FA02F5D4
:100210009D4205D303FA02F5491B04FA02F528446E
:10022000151EA2F10102F1DC30BDA0F14101192936
:1002300000D8203070470000064C074D06E0E0680B
:1002400040F0010394E8070098471034AC42F6D31D
:10025000FFF750FF58D1000878D1000870B5044668
:1002600002F0FEFB054604F1180002F07BFB40EAB9
:10027000050211484FF400714088012815D02089EB
:10028000237BC0F38B0003F00703401C9B1C9840AA
:10029000E16363791D090123AB4058436363206325
:1002A000B0FBF1F0A063104670BDE1636163A0682C
:1002B0008009401CC004F2E7AA0000203EB50220DD
:1002C0000090FF2300220D2101A802F0BFFD0120B4
:1002D000019C02F079FDFF2002F084FD14F0FF0F75
:1002E00003D1C4F30720002800D001203EBD000048
:1002F00010B50024012002F067FDFF2002F072FD1E
:10030000641CE4B2092CF8D9034901200870BDE847
:10031000104002F09FBC0000AA0000202DE9FF4F12
:10032000002583B0164601278B467A022C4692465A
:10033000A946FF23102101A8009502F087FD0120A6
:10034000DDF8048002F040FDFF2002F04BFD18F0C4
:10035000FF0F36D1504606F05DFF040031D0FF227A
:100360005146FFF7FFFE29E01D48CDF800900BEB4A
:1003700005024088012800D050464243FF23112146
:1003800001A802F063FD019810F0FF0F19D1FE20C3
:1003900002F0CAFDA8B9039852464119204602F05E
:1003A00035FD5544FF2002F01DFDFF2002F01AFD2F
:1003B000012002F009FDFF2002F014FD761ED3D2C9
:1003C0000027012002F000FDFF2002F00BFD14B118
:1003D000204605F045FF07B03846BDE8F08F000025
:1003E000AA0000202DE9FF4F83B0174600248A465B
:1003F0004FF400724FF001081646A146FF2310216A
:1004000001A8009402F022FD0120019D02F0DCFC15
:10041000FF2002F0E7FC15F0FF0F52D1304606F046
:10042000F9FE05004DD044E02B48CDF800900AEBD2
:1004300004024088012800D030464243FF2318219F
:1004400001A802F003FD019810F0FF0F35D1FF2045
:1004500002F0C8FCFF2002F0C5FCFE2002F0C2FC46
:10046000039832462044294602F0D0FC3444FF2051
:1004700002F0B8FCFF2002F0B5FCFF2002F0B2FC55
:100480008346FF2002F0AEFC0BF01F00052814D1BC
:10049000012002F099FC002002F096FCFF2002F0FF
:1004A000A1FCFF28FAD1012002F08EFCFF2002F00F
:1004B00099FC7F1EB8D24FF0000815B1284605F010
:1004C000CFFE012002F080FCFF2002F08BFC07B081
:1004D0004046BDE8F08F0000AA0000202DE9F04F53
:1004E00085B002F005F8FD4DFD4A0024687002F564
:1004F000C063A9780493103B0393203302F5C462D0
:100500004FF010094FF008080126CDE90123C9B1C9
:100510004FF0030B01297DD0F24F4FF0020A022960
:1005200079D0032978D0DFF8C083042975D0052954
:1005300074D1EE4E4FF48067307801286FD00228D6
:100540006ED0ABE300F018FCA868002878D00096C5
:100550000C23E7A20D2100200AF086FEA8680128DE
:1005600071D000960C23E6A2192100200AF07CFE2F
:1005700000210C23E7A2084600960AF075FE00232E
:1005800080220B2118460AF0CAFE4F460823CDF8F8
:10059000009030210020039A0AF092FE0C23E0A282
:1005A00032210A2000960AF05FFE082300973021CE
:1005B0001C20049A0AF084FE0C23DAA232212620A1
:1005C00000960AF051FE47461023CDF800803421F2
:1005D0003F20029A0AF074FE0C23D4A232214D204F
:1005E00000960AF041FE1023009734216620019AFC
:1005F0000AF066FE0C23CFA23421742000960AF084
:1006000033FE00238022302118460AF088FE0AF0CB
:1006100051FF07E06AE016E190E2E0E21AE030E321
:1006200034E30DE06878002814D001280DD00228AA
:1006300013D004280ED1A868A8B1012851D053E0E6
:10064000009485E7FFE700948CE7A868401EA86047
:1006500000D5AE6005B0BDE8F08FA868401CA8606A
:10066000012841DCF6E700F087FB0C23B2A2182139
:10067000142000960AF0F8FD002380220B21184672
:100680000AF04DFE1023009734211220029A0AF03E
:1006900017FE0C23A5A23221202000960AF0E4FDCB
:1006A0000823CDF8009030213F20039A0AF008FE7D
:1006B0000C23A5A232214A2000960AF0D5FD002382
:1006C0008022302118460AF02AFE0AF0F3FEA04EDE
:1006D0000AF022FD04F06EF830780128F8D1347069
:1006E00002E0A878401CA870AC60B3E700F044FBBF
:1006F000A86820B3032828D000960C2395A20D21CA
:100700000A200AF0B1FDA86801281AD003281CD0DD
:1007100000960C2394A219210A200AF0A5FDA868CE
:10072000022810D0032810D000960C2393A2252174
:100730000A200AF099FDA868032806D00CE000946E
:10074000DBE70094E5E70094EFE70C2390A20D218E
:100750000A2000940AF088FD00210C2391A208468B
:1007600000960AF081FD002380220B2118460AF032
:10077000D6FD4F460823CDF8009030210020039A83
:100780000AF09EFD0C2366A232210A2000960AF090
:100790006BFD0823009730211C20049A0AF090FD7D
:1007A0000C2360A23221262000960AF05DFD474608
:1007B0001023CDF8008034213F20029A0AF080FDFA
:1007C0000C235AA232214D2000960AF04DFD102331
:1007D000009734216620019A0AF072FD0C2355A27D
:1007E0003421742000960AF03FFD0023802230213E
:1007F00018460AF094FD0AF05DFE687800283FF480
:1008000031AF01280CD0022812D0032816D00428BA
:100810007FF428AFA878401CA870287A687163E735
:10082000A868401EA8607FF51DAFC5F808B011E7A5
:10083000A868401CA8600328F1DC0BE7AC60A8782E
:10084000401EA87006E700F097FAE868A96800EB78
:1008500040020A442A7000293DD00096C0EB0010E7
:1008600000EB800007EB40020C230D210A200AF068
:10087000FBFCA86801282FD00096E8680C23C0EB89
:10088000001000EB800007EB400219210A203232F1
:100890000AF0EAFCA86802281FD00096E8680C233A
:1008A000C0EB001000EB800007EB400225210A207E
:1008B00064320AF0D9FC00210C233FA208460096BE
:1008C0000AF0D2FC002380220B2118460AF027FDF3
:1008D0004F4608237AE0CCE0CDE0CEE0C80000200F
:1008E00044C90008641A0020000C01402C000020BC
:1008F0004E464320546573742044656D6F000000BC
:1009000055706461746520452D7061706572204476
:10091000656D6F0053656C6563742044656D6F0091
:1009200055500000444F574E000000004241434BD9
:10093000000000004F4B00004E4643207265646982
:100940006E6720746573740057616B6555500000C5
:100950002E000020322E313320696E636820652D11
:100960007061706572000000322E392020696E635C
:100970006820652D7061706572000000342E322091
:1009800020696E636820652D7061706572000000DB
:10099000372E352020696E636820652D7061706583
:1009A0007200000053656C65637420452D706170A2
:1009B00065722053697A650053656C6563742042E3
:1009C0004D5020506963747572650000CDF8009039
:1009D00030210020039A0AF073FC0C23AFF2C0020E
:1009E00032210A2000960AF03FFC082300973021AC
:1009F0001C20049A0AF064FC0C23AFF2D8023221C6
:100A0000262000960AF030FC47461023CDF80080DF
:100A100034213F20029A0AF053FC0C23AFF2F40277
:100A200032214D2000960AF01FFC1023009734213C
:100A30006620019A0AF044FC0C23AFF2081234211C
:100A4000742000960AF010FC002380223021184602
:100A50000AF065FC0AF02EFD687800283FF402AE2B
:100A600001280CD0022820D0032835D0042837D004
:100A700062E00094F2E60094FFE600940EE7A868B6
:100A8000401EA86058D5C5F808A0E868401EE86078
:100A900052D5E9785846B1FBF0F2EA60B1FBFBF2BF
:100AA0000BFB1210401EA86046E0A868401CA8601E
:100AB000EA68EB7802EB42010E189E4201DBAC6063
:100AC00008E0022838DD491EAC60994202DA521C67
:100AD000EA6031E0EC602FE0AC60A878401E31E0C5
:100AE000A878401CA87000F047F90C2371A20821D7
:100AF0000A2000960AF0B8FB102300973421172033
:100B0000029A0AF0DDFB0C23AFF2E012322125201D
:100B100000960AF0A9FB1023009734214820019A7F
:100B20000AF0CEFB0C23AFF2F412342156200096CB
:100B30000AF09AFB0AF0BEFC6C708BE5032803D028
:100B40000428F9D1A870F7E785F802A000F014F99D
:100B50004F460823CDF8009030210020039A0AF078
:100B6000AFFB0C23AFF2482232210A2000960AF094
:100B70007BFB0823009730211C20049A0AF0A0FB7D
:100B80000C23AFF260223221262000960AF06CFB83
:100B900047461023CDF8008034213F20029A0AF006
:100BA0008FFB0C23AFF27C2232214D2000960AF0FD
:100BB0005BFB1023009734216620019A0AF080FB2A
:100BC0000C23AFF290223421742000960AF04CFBE3
:100BD00000238022302118460AF0A1FBACE74FF435
:100BE0000069444601F01EFD70B3002249462046CC
:100BF00000F09BFA00F0C0F80C2338A21021052069
:100C000000960AF031FB0AF055FC2878002200EB30
:100C1000C00101EB001007EB4000114601F0D6FDCA
:100C2000384801F003F9A878401CA87000F0A4F837
:100C30000C2335A21021052000960AF015FB05B003
:100C4000BDE8F04F0AF036BC01224946204600F0CC
:100C50006CFA00F091F80C233AA210211A200096A9
:100C60000AF002FB0C233BA21C21002000960AF094
:100C7000FBFA0AF01FFC00BF01F03AFC0028FBD091
:100C8000B0E707F093FA3470012203E002F056FA5D
:100C9000347000223946404600F047FA687803284D
:100CA0007FF4E0AC00223946404600F03EFA85F879
:100CB00002A0CFE45768657468657220746F20677E
:100CC0006F20616865616420616E64206D616B6591
:100CD00020612063686F6963653F0000526561644D
:100CE000696E6720424D502070696374757265208B
:100CF000202020646174612066726F6D2052414D26
:100D00002E2E2E00DC050020506C6561736520617D
:100D10007070726F6163682074686520652D706102
:100D2000706572206F7220707265737320626163E8
:100D30006B20202020206B657920746F20657869F6
:100D4000742E000053442043617264204572726F18
:100D500072210000506C6561736520707265737359
:100D600020616E79206B657920746F207472792010
:100D7000616761696E2E000070B5002400250022B5
:100D8000294620460AF0E6FA6D1CEDB2402DF6D356
:100D9000641CE4B2802CF1D370BD00002DE9F04159
:100DA00001460026274804F0E7FE274C2749A1F218
:100DB0001C45A071A9611421E96100283ED124A03D
:100DC00003F0A8F905F1090722491E4804F0EAFFDB
:100DD000A07190BB687A80B3A869017801B93846E0
:100DE0002E21FFF7E7F920610028EDD0401C0146D5
:100DF000206116481438FFF7D4F917A12069FFF7CE
:100E0000E9F90028E0D1A969087800B9394606EB6C
:100E1000C60000EB06120F48203000EB420080466F
:100E2000FFF7BFF931460DA003F074F941460DA05C
:100E300003F070F9761CF6B2C6E7FFE73046BDE86E
:100E4000F08100001C180020C8000020601E002057
:100E50000D0A0000441A0020424D50003C25643E1B
:100E60003A20200025730D0A00000000FEE7000074
:100E700008B54FF47A7301226946034800F01EFD5D
:100E80009DF8000008BD00008405002001B54FF466
:100E90007A7301226946024800F0B8FD08BD0000DF
:100EA00084050020704710B5012000F03DF8BDE832
:100EB00010400AF0C5BCFEE7002200F001B80000B7
:100EC00030B50E4B054601205C7A012C15D8587AB6
:100ED00000241C54587A03EB800045605D7A03F1CE
:100EE00008002A54587A421C5A72303008703A204E
:100EF00048702F208870CC70002030BD1014002066
:100F000070B5044600F016F90546601C02D004488E
:100F10000078044400F00EF9401BA042FAD370BDE3
:100F2000B000002070470000044910B50A68024272
:100F300002D00860FFF7F6FF10BD00001404014066
:100F40002DE9F84FDFF8B891002409F1040A0AF1FD
:100F5000040B23460F270BF1040EC9E00125A54021
:100F60002A40AA427DD1674ED1F804C0ACEB0608F6
:100F7000B44532D014DCBCF1030F3AD009DCBCF12B
:100F8000000F2AD0BCF1010F1CD0BCF1020F31D1EF
:100F90001DE0BCF1110F17D0BCF1120F2AD119E0DE
:100FA000B8F5881F19D006DCB8F5803F15D0B8F524
:100FB000801F1FD111E0B8F5001F0ED0B8F5041F37
:100FC00018D10AE0CB6815E0CB681B1D12E0CB6896
:100FD00008330FE0CB680C330CE08B682BB1012B8E
:100FE0004FF0080303D0456104E0042302E00561EB
:100FF00000E00023FF2A01D8064601E000F10406C4
:101000004FEA840501D9A5F12005D6F8008007FA3A
:1010100005FC28EA0C0803FA05F548EA0508C6F8B5
:1010200000804D68ED0062D5374DAE6946F001068F
:10103000AE61AD6924F0030605F001050095334D5E
:1010400006EB050CDCF80850A607360F07FA06F881
:1010500025EA0805DFF8B880404503D14FF00008C5
:1010600017E044E0DFF8AC80404502D14FF00108C2
:101070000FE0DFF8A480404502D14FF0020808E0FD
:10108000DFF89880404502D14FF0030801E04FF0AF
:10109000040808FA06F848EA0508CCF808804D6804
:1010A000D9F80060ED034D4601D5164300E09643A4
:1010B0002E604D68DAF80060AD03554601D5164341
:1010C00000E096432E604D68DBF80060ED025D465F
:1010D00001D5164300E096432E604D68DEF80060AF
:1010E000AD02754601D5164300E096432E60641CA0
:1010F0000D682A46E5407FF431AFBDE8F88F000067
:1011000000040140000011100010024000000140E6
:1011100000080140000C0140001001400014014093
:101120008068084000D0012070470AB10161704713
:101130000904FBE70148806870470000B000002008
:10114000024881680278114481607047B000002035
:10115000074810B5016841F010010160032000F05C
:1011600085F8002000F006F800F024F8002010BDFB
:101170000020024070B50D4D04464FF47A71287876
:10118000B1FBF0F00A490968B1FBF0F000F0DDFDB9
:1011900048B9102C07D200222146501E00F046F814
:1011A00000206C6070BD012070BD0000B000002008
:1011B000BC0000200C4808B5816941F00101816143
:1011C000816901F001010091C16941F08051C16163
:1011D000C06900F0805000900448416821F0E0614F
:1011E00041F00071416008BD001002400000014064
:1011F00000280DDB00F01F02012191404009800012
:1012000000F1E020C0F88011BFF34F8FBFF36F8F64
:101210007047002809DB00F01F02012191404009BE
:10122000800000F1E020C0F800117047F0B40E4BD0
:101230001B680C46C3F30223C3F10705042D00D934
:101240000425191D072901D2002300E0DB1E012619
:1012500006FA05F1491E214099409E40761E16402F
:101260003143F0BC02F066BF0CED00E0064900F02F
:10127000070208684FF6FF03184040EA0220034ABD
:1012800010430860704700000CED00E00000FA0514
:101290002DE9F0470F46050061D0434E306800F05D
:1012A0000700B84209D2306820F0070038433060A8
:1012B000306800F00700B84251D128683B4C8107E4
:1012C00012D5400703D5606840F4E060606028787C
:1012D000000703D5606840F4605060606068A968EA
:1012E00020F0F000084360602878C00728D06868C4
:1012F000012810D02168022810D0890700292EDA91
:10130000616821F0030101436160FFF713FF80462C
:1013100041F288390DE021688903EFE78901EDE7A3
:10132000FFF708FFA0EB0801494502D90320BDE8FB
:10133000F0876068696800F00C00B0EB810FEFD1B6
:10134000306800F00700B8420BD9306820F0070081
:1013500038433060306800F00700B84201D0012007
:10136000E5E72878400705D56068E96820F4E06083
:10137000084360602878000706D56068296920F472
:10138000605040EAC100606000F038F86168084AC7
:10139000C1F30311515CC840064908600648006863
:1013A000FFF7E8FE0020C2E70020024000100240E4
:1013B0003DBF0008BC000020B400002004480549DF
:1013C00000684968044AC1F30221515CC840704773
:1013D000BC000020001002404DBF00080448054931
:1013E00000684968044AC1F3C221515CC840704793
:1013F000BC000020001002404DBF000812A185B0C3
:101400000FC98DE80F0014A0144A006804905168B9
:10141000134801F00C03042B10D0082B0ED1C1F39C
:101420008343C9031DF803000AD5516804AAC1F318
:101430004041515C0A4A5043B0FBF1F005B070479F
:1014400008494843FAE700000203040506070809B3
:101450000A0B0C0D0E0F10100102000000100240CC
:1014600000127A0000093D002DE9F84F040070D009
:101470002078C04DC00749D06868C0F381000128BA
:1014800007D06868C0F38100022809D16868C003EA
:1014900006D52868800339D560680028E7D035E094
:1014A0006068B0F5803F0BD010B1B0F5A02F11D01F
:1014B000286820F480302860286820F4802002E02A
:1014C000286840F480302860606890B1FFF732FEF1
:1014D00006460AE0286840F480202860F0E700BF54
:1014E000FFF728FE801B642873D828688003F7D58F
:1014F0000CE0FFF71FFE064605E000BFFFF71AFEEF
:10150000801B6428F0D828688003F7D420789A4E8E
:1015100080074FF001094FF0000839D5686810F0D6
:101520000C0F07D06868C0F38100022809D16868F1
:10153000C00306D42868800714D52069012808D183
:1015400010E02069B0B1C6F80090FFF7F3FD074640
:1015500005E00AE1FFF7EEFDC01B0228C4D82868A9
:101560008007F7D52868616920F0F80040EAC100DB
:1015700028600DE0C6F80080FFF7DCFD074604E0B8
:10158000FFF7D8FDC01B022823D828688007F7D4AE
:10159000207800072CD57948A169D9B1C0F800900E
:1015A000FFF7C8FD074604E0FFF7C4FDC01B022893
:1015B0000FD8686A8007F7D571484FF4FA51006870
:1015C000B0FBF1F0009000BF0098411E0091FAD2EC
:1015D0000EE080E0C0F80080FFF7ACFD074604E0B5
:1015E000FFF7A8FDC01B022875D8686A8007F7D4EA
:1015F0002078400760D5E8690027C00008D4E86972
:1016000040F08050E861E869012700F080500090C8
:101610005C480168C90513D40168834641F48071B0
:101620000160FFF787FD824606E000BFFFF782FDFD
:10163000A0EB0A0064284ED8DBF80000C005F5D501
:10164000E06801280AD008B1052813D0286A20F0E4
:1016500001002862286A20F0040002E0286A40F0B5
:1016600001002862E06841F2883B98B1FFF762FD13
:1016700082460BE0286A40F004002862EEE700BFD3
:10168000FFF758FDA0EB0A0159455AD8286A800790
:10169000F6D50CE0FFF74EFD824605E0FFF74AFD68
:1016A000A0EB0A0159454CD8286A8007F6D41FB12F
:1016B000E86920F08050E861E06988B36968C1F3A7
:1016C0008101022944D00228C6F8608004D0FFF7C7
:1016D00031FD044638E034E0FFF72CFD074604E016
:1016E000FFF728FDC01B02282BD828688001F7D4FB
:1016F000206AB0F5803F05D16868A16820F4003009
:1017000008436860D4E908010843696821F474114A
:1017100008436860C6F86090FFF70CFD044606E0D9
:1017200025E000BFFFF706FD001B022809D8286846
:101730008001F7D51BE000BFFFF7FCFC001B02286F
:1017400002D90320BDE8F88F28688001F4D40EE0A8
:101750000128F7D06868226A00F48031914204D1F0
:10176000616A00F47010884201D00120EAE700208D
:10177000E8E70000001002400000424280044242BC
:10178000BC0000200070004070B5040005D00025AA
:10179000A56294F8510010B106E0012070BD84F8F4
:1017A0005050204600F02EF8022084F851002068A6
:1017B000016821F040010160D4E901010843D4E946
:1017C00003121143084361690843218B01F400713E
:1017D0000843E1690843216A0843A16A0843216874
:1017E0000860A069042101EA10402168486020686F
:1017F000C16921F40061C1616565012084F851006F
:10180000002070BD30B585B000240094019402948E
:101810000394254D0368254802210322AB421AD1C7
:10182000836943F480538361836903F48053049391
:10183000836943F00403836180691D4D00F0040057
:101840000490A020CDE90001039269462846FFF7E5
:1018500077FB40201EE0174DAB4222D1C36943F411
:101860008043C361C36903F480430493836943F0F5
:10187000080383618069104D00F0080004904FF464
:101880002040CDE90001039269462846FFF758FB46
:101890004FF48040CDE90004694628460294FFF7E2
:1018A0004FFB05B030BD0000003001400010024089
:1018B0000008014000380040000C01402DE9F84FBD
:1018C000044640680025984616460F464FF0040B24
:1018D000B0F5827F01D1A06888B194F8500001284A
:1018E00018D0012084F85000FFF724FC814694F8BA
:1018F00051004FF0000A01280ED002257DE084F847
:1019000051B013460A462046CDF8008000F02CF96D
:10191000BDE8F88F0220FBE7002F6DD0002E6BD0C2
:1019200084F851B0C4F854A0A763A687E687C4F82A
:1019300030A0A4F834A0A4F836A0C4F840A0C4F89D
:1019400044A0A068B0F5004F04D12068016821F4DC
:101950008041016020680168490603D4016841F0B4
:1019600040010160E068D8B139E020688168C907AA
:1019700009D0007BA16B0870A06B401CA063E08FB6
:10198000401EE0870CE0FFF7D5FBA0EB09014145C5
:1019900003D3B8F1FF3F03D036E0B8F1000F33D0E6
:1019A000E08F0028E1D11DE020688168C90709D0D7
:1019B000C068A16B0880A06B801CA063E08F401EF4
:1019C000E0870CE0FFF7B6FBA0EB0901414503D32C
:1019D000B8F1FF3F03D017E0B8F1000F14D0E08F4B
:1019E0000028E1D14A464146204601F0F7FA08B105
:1019F00020206065606D00B10125012084F8510050
:101A000084F850A0284683E70325F6E72DE9F84F30
:101A1000044690F8500000271D46164689460128C6
:101A20000DD04FF0010B84F850B0FFF783FB8046D8
:101A300094F85100BA46012804D002278EE0022013
:101A4000BDE8F88FB9F1000F7DD0002E7BD00320C8
:101A500084F85100C4F854A0C4F83090A686E686F5
:101A6000C4F838A0A4F83CA0A4F83EA0C4F844A050
:101A7000C4F840A0A068B0F5004F04D12068016808
:101A800041F48041016020680168490603D401687F
:101A900041F040010160E068B0F5006F606803D07C
:101AA00030B3012E24D040E008B1012E1CD1206BB0
:101AB00021680088C86006E020688168890709D528
:101AC000216B0988C160206B801C2063E08E401E62
:101AD000E08609E0FFF72EFBA0EB0800A84202D346
:101AE000681C01D031E07DB3E08E0028E4D11FE016
:101AF000206B21680078087306E0206881688907F8
:101B000009D5216B09780173206B401C2063E08E9E
:101B1000401EE08609E0FFF70DFBA0EB0800A8429D
:101B200002D3681C01D010E075B1E08E0028E4D12A
:101B300042462946204601F07FFA08B12020606520
:101B4000A06820B107E008E0FFE7032706E020686F
:101B5000C16880680090606D00B1012784F851B0C1
:101B600084F850A038466BE72DE9F84F044690F80A
:101B7000500000270A9E1D4692468B464FF00109F1
:101B800001280ED0012084F85000FFF7D3FA8046D8
:101B900094F85100616801280CD0B1F5827F07D11B
:101BA00002E00220BDE8F88FA16809B9042801D03D
:101BB0000227C2E0BBF1000F27D0BAF1000F24D0FA
:101BC0001DB394F85100042802D0052084F8510078
:101BD00000206065C4F838A0E587A587C4F830B058
:101BE000E586A5862064606420680168490603D400
:101BF000016841F040010160E068B0F5006F606885
:101C000005D0E8B3012D46D07FE0012795E008B16B
:101C1000012D39D1206B21680088C860206B801CA1
:101C20002063E08E401EE0862EE0206881688907F0
:101C30000FD5E18E69B1B9F1010F0AD1216B098885
:101C4000C160206B801C2063E08E401EE0864FF058
:101C5000000920688168C9070CD0E18F51B1C068C4
:101C6000A16B0880A06B801CA063E08F401EE08702
:101C70004FF00109FFF75EFAA0EB0800B04200E068
:101C800009E001D3701C50D1E08E0028CDD1E08F47
:101C90000028CAD13FE0206B216800780873206BD0
:101CA000401C2063E08E401EE0862EE020688168A4
:101CB00089070FD5E18E69B1B9F1010F0AD1216B06
:101CC00009780173206B401C2063E08E401EE08683
:101CD0004FF0000920688168C9070CD0E18F51B12D
:101CE000C068A16B0870A06B401CA063E08F401E11
:101CF000E0874FF00109FFF71DFAA0EB0800B042A2
:101D000002D3701C01D010E07EB1E08E0028CDD14E
:101D1000E08F0028CAD142463146204601F08CF9B6
:101D200028B101272020606507E0032705E0A068AF
:101D300018B92068C16880680090012084F85100BB
:101D4000002084F8500038462CE710B5401EB0F152
:101D5000807F01D3012010BD4FF0E02460610F218E
:101D6000601702F0E7F90020A06107202061002041
:101D700010BD7047704770B590F83C20012A19D00B
:101D8000012400F83C4F0222427050F83C3C5A6853
:101D90009D6822F070060A684968324325F0800584
:101DA00029435A6050F83C2C916044700021017026
:101DB000084670BD022070BD10B5040003D094F831
:101DC0003D0010B107E0012010BD002084F83C0068
:101DD000204600F00DF8022084F83D00211D206807
:101DE00002F018F8012084F83D00002010BD00002A
:101DF00008B500680B49884212D10B48C16941F00F
:101E00000201C161C069002200F002000090114689
:101E10001D20FFF70BFABDE808401D20FFF7F9B9B8
:101E200008BD000000040040001002400168CA68BC
:101E300042F00102CA600068816801F007010629CA
:101E400003D0016841F0010101600020704770B5C6
:101E5000044690F83C00012817D0012584F83C5036
:101E6000022084F83D002068826822F0770222F484
:101E70007F4282600868502830D00DDC20284DD089
:101E800005DC98B310283BD148E0022070BD302813
:101E900044D0402834D139E0602828D0702806D0BA
:101EA000B0F5805F2CD0B0F5005F29D10AE0CB6897
:101EB000D1E90121206801F0E3FF2068816841F049
:101EC000770109E0CB68D1E90121206801F0D8FF52
:101ED0002068816841F48041816011E0CA684968E6
:101EE000206801F0DFFF5021206807E016E0CA6893
:101EF0004968206801F0E7FF6021206801F0CAFF0F
:101F000084F83D50002084F83C0070BDCA684968E0
:101F1000206801F0C7FF40212068EFE722680146F2
:101F20001046EBE7704770B50446006801694FF052
:101F30000005C943890715D4C168C943890711D46D
:101F4000E91E016101202077206880698007204612
:101F500002D0FFF7E7FF04E000F098F8204600F019
:101F600096F8257720680169C943490717D4C168E5
:101F7000C943490713D46FF004010161022020779F
:101F80002068806910F4407F204602D0FFF7CAFF26
:101F900004E000F07BF8204600F079F8257720680F
:101FA0000169C943090716D4C168C943090712D496
:101FB0006FF008010161042020772068C069800764
:101FC000204602D0FFF7AEFF04E000F05FF82046A5
:101FD00000F05DF8257720680169C943C90617D468
:101FE000C168C943C90613D46FF01001016108200C
:101FF00020772068C06910F4407F204602D0FFF7A8
:1020000091FF04E000F042F8204600F040F8257708
:1020100020680169C943C90708D1C168C943C90714
:1020200004D1891E0161204600F032F82068016960
:10203000C943090609D4C168C943090605D46FF02C
:10204000800101612046FFF794FE20680169C943C1
:10205000490609D4C168C943490605D46FF0400157
:102060000161204600F02AF820680169C943890609
:102070000BD4C168C943890607D46FF02001016100
:102080002046BDE87040FFF775BE70BD70477047D1
:1020900000680849884208D10748417831B10129D0
:1020A00003D10221017000214170704701210170AC
:1020B000FAE70000000400402C000020704770B5D3
:1020C000040004D094F83900002510B106E0012086
:1020D00070BD84F83850204600F022F8242084F89F
:1020E00039002068C16821F40051C160204601F028
:1020F000FDFE2068016921F4904101612068416979
:1021000021F02A0141612068C16841F40051C16099
:10211000E563202084F8390084F83A00002070BD7F
:1021200030B585B0002400940194029403940068B3
:102130001449884223D11448C16941F40031C16176
:10214000C16901F400310491816941F004018161A8
:1021500080690E4D00F004000490042000900220DD
:1021600001900320039069462846FEF7E9FE082007
:10217000CDE90004694628460294FEF7E1FE05B069
:1021800030BD000000440040001002400008014043
:102190002DE9F843044690F839001F4616460D46CF
:1021A000202850D1A5B19EB194F8380001284AD01A
:1021B000012084F838004FF00008C4F83C8021204A
:1021C00084F83900FEF7B6FFA6848146E68426E04F
:1021D0000120BDE8F883E08C401EE084A0684B46F7
:1021E000B0F5805F4FF000024FF08001204600976D
:1021F00003D001F0D7FEE8B90DE001F0D3FEC8B975
:1022000028882168C0F308004860206908B16D1C67
:1022100005E0AD1C03E0216815F8010B4860E08C77
:102220000028D8D14B46002240212046009701F0DB
:10223000B9FE08B10320CCE7202084F8390084F8E7
:1022400038800020C5E70220C3E7FEE710B5044947
:102250000448FEF731FE0249491E087010BD000017
:10226000210000200C0000202DE9F04F85B0002552
:102270004B480095019502950395816941F0200135
:102280008161816901F020010491816941F01001AF
:102290008161816901F010010491816941F00401BB
:1022A0008161816901F004010491816941F00801B3
:1022B00081618069DFF8EC9000F008000490002252
:1022C00010214846FEF731FFDFF8DCA04FF44067ED
:1022D000002239465046FEF728FF4FF4805801226D
:1022E00041465046FEF721FFDFF8C0B00122C02171
:1022F0005846FEF71AFF0022B9105846FEF715FFA0
:102300000F20CDE900050124694602945846FEF7E6
:1023100017FE27486946CDE9004002954846FEF77A
:102320000FFE1020CDE900040326CDE902466946E0
:102330004846FEF705FECDE900740227029769467C
:1023400050460397FEF7FCFDCDE90084CDE9024637
:1023500069465046FEF7F4FDC020CDE90004CDE902
:10236000024669465846FEF7EBFD2002CDE900041F
:10237000CDE9024769465846FEF7E2FD60028DE866
:10238000710069465846FEF7DBFD00221146062023
:10239000FEF74CFF0620FEF73CFF05B0BDE8F08FCE
:1023A0000010024000080140000C014000100140F4
:1023B00000001110104810B50E4901604FF48271F1
:1023C0004160002181600122C160C0E90412520213
:1023D00082611822C0E90721416281620A21C1623B
:1023E000FFF7D2F9002803D0BDE81040FEF763BD27
:1023F00010BD0000003001402C050020104810B531
:102400000E4901604FF48271416000218160C1601A
:102410004FF400720161C0E905122022C0E90721D2
:10242000416281620A21C162FFF7AEF9002803D040
:10243000BDE81040FEF73FBD10BD00000038004071
:102440008405002010B586B000241848009401943B
:1024500002940394049414490594016041F61F41C9
:10246000C0E9011440F69F71C0E903148021816125
:10247000FFF7A2FC08B1FEF71EFD4FF4805000905C
:1024800069460A48FFF7E3FC08B1FEF714FD04941F
:1024900004A906480594FFF76EFC002801D0FEF75A
:1024A0000AFD06B010BD000000040040DC0500205D
:1024B0000C4810B50A4901604FF4E1314160002138
:1024C00081600C22C160C0E904128161C161FFF723
:1024D000F6FD002803D0BDE81040FEF7ECBC10BDAF
:1024E000004400401C060020FEE7704770470000D3
:1024F00070B52D4C01212046FEF712FE38B90A2096
:10250000FEF7FEFC01212046FEF70AFE28B102215B
:102510002046FEF705FE40B10FE001212046FEF700
:10252000FFFD0028F9D0012070BD0A20FEF7E8FC6D
:1025300002212046FEF7F4FD28B104212046FEF7D3
:10254000EFFD40B10FE0022502212046FEF7E8FD35
:102550000028F9D026E00A20FEF7D2FC042120460C
:10256000FEF7DEFD28B108212046FEF7D9FD40B177
:102570000FE0032504212046FEF7D2FD0028F9D004
:1025800010E00A20FEF7BCFC08212046FEF7C8FD3B
:1025900008B1002070BD042508212046FEF7C0FDCB
:1025A0000028F9D0284670BD001001402DE9F04107
:1025B0001B4F06460D46787902280BD25FF00004C7
:1025C00004EB061000F0C4FC2919641CE4B2C870C6
:1025D000102CF5D37879022810D003280CD10024D0
:1025E000C6EB061604EBC60000F0B2FC2919641C09
:1025F000E4B2C870782CF5D3BDE8F08106EBC600D4
:10260000002400EB061600BF04EB860000F0A0FCDF
:102610002919641CE4B2C870642CF5D3ECE70000FF
:10262000C800002010B51A491A48FEF745FC08B149
:1026300019A003E0FDF75CFE18B1204801F06AFD27
:102640000CE01FA001F066FD012229A1294803F03A
:1026500091F9010004D028A001F05CFD002010BD1C
:1026600035A001F057FD22A13F4803F085FA040090
:1026700008D00D2C04D03DA001F04CFD2146EAE726
:1026800043A0F9E74BA001F045FD012010BD00007B
:10269000210000200C0000204465627567203A206C
:1026A00046415446535F4C696E6B4472697665725D
:1026B000206572726F720D0A0000000010D10008D0
:1026C0004465627567203A20534420636172642038
:1026D000696E697469616C697A6174696F6E20737F
:1026E00075636365737366756C2E2E0D0A000000AA
:1026F0002F000000FC0200204465627567203A202C
:1027000053442063617264206D6F756E7420666936
:102710006C652073797374656D206661696C65649E
:10272000202C6572726F7220636F6465203A2825D1
:1027300064290D0A000000004465627567203A2094
:1027400053442063617264206D6F756E74206669F6
:102750006C652073797374656D207375636365733D
:10276000732121200D0A0000D20F002044656275FC
:1027700067203A204661696C20746F206F70656E27
:10278000206469726563746F72790D0A000000003D
:102790004465627567203A20534420636172642067
:1027A0006E6F742046415420666F726D617465646B
:1027B0000D0A00004465627567203A2066696C6501
:1027C000206F70656E200D0A000000002DE9F047B3
:1027D000ADF51C7D054614468A460DF50B780122A1
:1027E0002946684603F0F4F8294630B137A001F0D5
:1027F00091FC0DF51C7DBDE8F0873BA001F08AFC43
:102800009AAB36228BA9684603F006FA9DF82C0293
:102810004D2803D19DF82D02422823D0DDF82E1239
:1028200038A001F077FCDDF836123DA001F072FC13
:10283000DDF83612684602F05BFF9DF83E02400765
:10284000DDF83E024FEAD00000D0401C86B2B0074F
:102850000CD0B0088000001D87B20020DFF8E090A7
:1028600099902BE037A001F055FCC2E73046F3E722
:102870004FEADA051EE09AAB012299A9684603F0F7
:10288000CBF9B54214D2B9F80A10D8F816000129CC
:10289000B9F80210A0EB0400A0F1010000FB061043
:1028A0009DF86412284401D0C943C9B200F072FBFC
:1028B0006D1CADB2BD42DED3641CA4B2D8F81600C4
:1028C000A042D5D8684602F0FDFE92E744656275E5
:1028D00067203A204E6F2066696C6520666F756EC2
:1028E000643A2025730D0A004465627567203A201A
:1028F0006F70656E20626D702066696C653A202588
:10290000730D0A004465627567203A2066696C653C
:102910002073697A65203D20202564200D0A00007F
:102920004465627567203A2066696C65206F66664B
:10293000736574203D20202564200D0A00000000EE
:10294000C00F00204465627567203A2074686520D6
:1029500066696C65206973206E6F7420626D700DFE
:102960000A00000070B588B0002504460126FF2348
:102970002A460A2105A8009500F068FA059810F08B
:10298000FF0F63D1FE2000F0CFFA00285ED101AE28
:10299000FF2000F027FA70556D1C102DF8D3FF2092
:1029A00000F020FAFF2000F01DFA9DF804002070CE
:1029B0009DF805000002608060889DF806100843BD
:1029C00060809DF807000006606060689DF8081050
:1029D00040EA0140606060689DF8091040EA01200B
:1029E000606060689DF80A10084360609DF80B0005
:1029F00020729DF80C0060729DF80D000006E060EA
:102A0000E0689DF80E1040EA0140E060E0689DF843
:102A10000F1040EA0120E060E0689DF810100843C4
:102A2000E060217C9DF8110041EA1011217400073B
:102A3000000D6082608A9DF81210084360829DF844
:102A4000130040082075012060750026012000F069
:102A5000BBF9FF2000F0C6F908B0304670BD000099
:102A600070B588B0002504460126FF232A460921B7
:102A700005A8009500F0EAF9059810F0FF0F7DD148
:102A8000FE2000F051FA0028F9D101AEFF2000F03D
:102A9000A9F970556D1CADB2102DF7D3FF2000F0D1
:102AA000A1F9FF2000F09EF99DF8041020788A0912
:102AB00062F3010061F3870020709DF805006070EB
:102AC0009DF80600A0709DF80700E0709DF80800D2
:102AD00001019DF8090041EA1012A18862F30B017F
:102AE000A180617960F3071161719DF80A00A179F5
:102AF000C20962F30001820962F34101420962F3F3
:102B00008201020962F3C301A17151494988002978
:102B100072D081009DF80B0041EA9012217A0004E6
:102B200062F3050121729DF80C1040EA01209DF826
:102B30000D100843A16860F39B11A160E07A20F0BA
:102B40001000E0729DF80E10207C8A0962F30000EC
:102B50009DF80F20490041EAD21161F3470020742B
:102B6000617C9DF8100062F30601C20962F3C7118F
:102B70006174A17C420962F3010100E032E0820845
:102B800062F38401A1749DF81110800040EA911253
:102B9000E07C62F303004A0962F30410E074207DD4
:102BA00061F304009DF81210CA0962F345108A0906
:102BB00062F386104A0962F3C7102075607D0A0926
:102BC00062F300008A0862F3420061F3C40060759A
:102BD0009DF81310A07D4A0862F3060061F3C71048
:102BE000A0750026012000F0EFF8FF2000F0FAF8B1
:102BF00008B0304670BDFFE7217A820862F3010118
:102C000021729DF80B10800240EA81009DF80C10A3
:102C100040EA9112208962F38D002081A07ACA08CF
:102C200062F3020061F3C500A0729DF80D10E07A16
:102C30004A0962F302008A0862F3C500E07288075D
:102C40009DF80E10400F40EAD11020737AE7000083
:102C5000AA0000202DE9FF4100248DF80C4000BFA0
:102C60009DF80C00401C8DF80C00002295231146A5
:102C700001A8009400F0EAF80120019D00F0A4F8FA
:102C8000FF2000F0AFF89DF80C0064287ED2E8B277
:102C90000128E5D10520009087234FF4D572082143
:102CA00001A800F0D3F80120019D00F08DF8FF206D
:102CB00000F098F8E8B2434E41071FD5FF230022E9
:102CC000372101A8009400F0C1F8012000F07CF841
:102CD000FF2000F087F8FF230022292101A800949B
:102CE00000F0B4F80120019D00F06EF8FF2000F024
:102CF00079F8E8B20128E1D0748060E0012856D16B
:102D00008707FF230022372101A8009400F09EF8D6
:102D1000012000F059F8FF2000F064F8FF233A4644
:102D2000292101A8009400F091F80120019D00F0F4
:102D30004BF8FF2000F056F8E8B20128E1D0680710
:102D400021D5FF230022372101A8009400F07EF84E
:102D50000120019D00F038F8FF2000F043F8E8B2B0
:102D6000012824D1FF230022292101A8009400F08A
:102D70006DF80120019D00F027F8FF2000F032F8E7
:102D8000E8B20128DDD00320FF2300E00FE000902F
:102D900000223A2101A800F059F80120019C00F01E
:102DA00013F8FF2000F01EF814F0FF0F03D00120ED
:102DB00004B0BDE8F081200AC0F3801070800020CC
:102DC000F6E70000AA000020054B4FF480510128CF
:102DD00003D000221846FEF7A8B90122FAE7000046
:102DE000000C014001B582B04FF47A7000900123CD
:102DF00001AA02A90448FEF7B7FE08B1FFF7FEFAE0
:102E00009DF804000EBD00008405002008B54FF4B5
:102E10007A73009313460A4601460548FEF7A4FE5E
:102E2000002803D0BDE80840FFF7E8BA08BD00005D
:102E30008405002010B50824FF20FFF7D3FF641E8F
:102E4000E4B2FF2801D1002CF6D110BD2DE9FF41DD
:102E500006463448D0E9004541F040000A9F8DF80D
:102E60000000100E8DF80100100C8DF80200100A01
:102E70008DF803008DF8042043F001008DF8050063
:102E80000020FFF7A1FF062202A96846FFF7BEFF58
:102E9000062F43D2DFE807F00308202A422AFFF773
:102EA000C9FF60F3070439E0FFF7C4FF60F30704CC
:102EB000FF20FFF797FF60F30F240120FFF784FF47
:102EC0000120FEF71DF80020FFF77EFFFF20FFF72F
:102ED00089FFFF28FAD121E0FFF7ACFF60F3070478
:102EE000FF20FFF77FFF60F30F2417E0FFF7A2FF3B
:102EF00060F30704FF20FFF775FF60F30F24FF2046
:102F0000FFF770FF60F31744FF20FFF76BFF60F3DC
:102F10001F64FF20FFF766FF60F30705346035711B
:102F2000BDE8FF8138BF000870B505464FF6FF7455
:102F3000FF20FFF757FF641EA4B2A84202D0002C66
:102F4000F6D102E00CB1002070BD022070BD00007F
:102F500070B50F4D0446002240212846FEF7E5F8E3
:102F60000320FDF793FFC4F30740FDF78FFFC4F381
:102F70000720FDF78BFFE0B2FDF788FFFDF778FF34
:102F80000446012240212846FEF7CFF8204670BDB6
:102F90000010014070B5104D0E460446002240213D
:102FA0002846FEF7C2F80220FDF770FFC4F3074081
:102FB000FDF76CFFC4F30720FDF768FFE0B2FDF7F3
:102FC00065FF3046FDF762FF2846BDE870400122EC
:102FD0004021FEF7AAB8000000100140F8B50446F1
:102FE00040684FF48273984217D1A0684FF480650F
:102FF000B0F5004F01D0A8420FD12068066826F036
:10300000400606606068984207D1A068A84204D1D3
:1030100000920B460022012103E000920B460022A1
:103020008021204600F018F8002804D0606D40F0A0
:10303000200060650320F8BD38B50B4600920446B9
:103040000022802100F008F8002804D0606D40F0D4
:1030500020006065032038BD2DE9F0411D4617466C
:103060000E460446DDF8188008E0681C06D0FEF71E
:1030700061F8A0EB0800A8420BD255B12068806827
:1030800036EA000030D00020B842EED10020BDE882
:10309000F0812068416821F0E00141606068B0F58E
:1030A000827F0BD1A068B0F5004F02D0B0F5806FE1
:1030B00004D12068016821F040010160A06AB0F5E8
:1030C000005F09D12068016821F400510160206887
:1030D000016841F400510160012084F85100002092
:1030E00084F850000320D2E70120CDE770470000AC
:1030F00001490860704700002800002070B50E4D9F
:103100000C46ADF5027D2968164651B118B101464D
:1031100001A8FDF707F84FF47A7000902CB1224611
:1031200004E026200DF5027D70BD41AA334601A9B9
:103130002868FEF719FDF5E7280000202DE9F04F7B
:10314000FFA0C7B000683B90FEA000260068399041
:10315000FDA0772100683C90FCA000683D90FCA099
:1031600000683E90FBA000683F90FBA00068409084
:10317000FAA00068419009A8FCF7FBFFF848006836
:103180000890F8A000684290F7A000684390F7A06C
:1031900000684490F6A000684590F6A0006837905B
:1031A00006F02EF905F010F846A9002006F03CFACA
:1031B000002873D13AAB31AA012106F074F8002837
:1031C000F7D19DF8E800002868D0FDF7D5FD9DF8FF
:1031D000C4100027012431A801292CD09DF8C81063
:1031E000401D03F089F90146E3A000F093FF0C2392
:1031F000EBA218210F20009408F036F808F05AF9D5
:10320000EC4D0DF19C0941F26D084FF4806BEAA082
:1032100000F080FFCDF80090CDE90178142303AAD7
:1032200002213BA807F02DFB5946E548FDF778FF42
:1032300078B100220EE00421113003F05DF901465F
:10324000E0A000F067FF0C231821EBA20A200094F5
:10325000D2E701225946DA48FDF767FF9DF80C00D6
:1032600010B99DF80D0090B12879401CC0B22871AA
:103270000A2830D9E5A000F04DFF02F01DFE012222
:10328000D102CF48FDF751FF0E262F71DEE08DF8F9
:103290000C408DF80D400126ECA0C9E3F6E3012EA9
:1032A0001AD0022E6ED0032E7ED0042E7DD0052E95
:1032B0007CD0062E7BD0072E7AD0082E79D0092E0E
:1032C00078D00A2E77D00B2E76D00C2E75D00D2EFE
:1032D00074D00E2E73D0ADE3FDF74EFD687930B19A
:1032E000012806D0022809D003280CD011E00420C0
:1032F00000E007208DF8E600102008E00A208DF895
:10330000E600642003E00E208DF8E60078208DF8BA
:103310002200CDF80090CDE90178142303AA0321FF
:1033200039A807F0AEFA0C23CAA218211420009481
:1033300007F09AFF08F0BEF89DF80C0010B99DF850
:103340000D00B0B12879401CC0B228710A2817D9E5
:10335000AEA000F0DFFE02F0AFFD0E262F71C820F8
:10336000FDF7CEFD0122D1029548FDF7DEFE0A20D1
:10337000A0E08DF80C408DF80D400226B9A0C8E001
:103380000A20A5E0CDF80090CDE90178142303AA26
:1033900002213CA807F075FA9DF80C0010B99DF8C1
:1033A0000D0018B328790BE02BE05CE093E0B4E06B
:1033B0007DE1A8E10EE349E3A8E3F0E3F0E3F0E305
:1033C000401CC0B22871322819D990A000F0A2FE8A
:1033D00002F072FD0E262F71C820FDF791FD01222B
:1033E000D1027748FDF7A1FE642063E08DF80C4020
:1033F0008DF80D4003269DA000F08CFE2F716420F7
:1034000066E0CDF80090CDE90178142303AA0221EB
:103410003DA807F036FA9DF80C0010B99DF80D0094
:10342000B0B12879401CC0B228710A2819D977A0F8
:1034300000F070FE02F040FD0E262F71C820FDF74F
:103440005FFD0122D1025E48FDF76FFEC82031E02A
:103450008DF80C408DF80D40042686A000F05AFE31
:103460002F71C82034E0CDF80090CDE90178142305
:1034700003AA02213EA807F004FA9DF80C0010B937
:103480009DF80D00C8B12879401CC0B228710A28E7
:103490001CD95EA000F03EFE02F00EFD0E262F713C
:1034A000C820FDF72DFD0122D1024548FDF73DFE64
:1034B0004FF4FA70FDF724FDC4E28DF80C408DF84E
:1034C0000D4005266DA000F025FE2F714FF4FA7017
:1034D000FDF716FDAEE2CDF80090CDE9017814239A
:1034E00003AA02213FA807F0CCF99DF80C0010B9FF
:1034F0009DF80D0038B12879401CC0B228711E28F3
:103500007FF63EAF24E78DF80C408DF80D4006267F
:103510005CA000F0FFFD2F7132E7CDF80090CDE9FF
:103520000178142303AA022140A807F0AAF99DF804
:103530000C0018B99DF80D0000B9A7E0D2E000001A
:10354000CD0D0000CD000A00CD010000CD0200002D
:10355000CD030000CD050000CD060000CD07000022
:1035600074CF0008CD180000CD090000CD0A00007E
:10357000CD0400000000250049534F31343434336A
:10358000412F4E46432D41206361726420666F7562
:103590006E642E205549443A2025730D0A00000020
:1035A000452D70617065722064657465637465642F
:1035B0002E000000C8000020537465703000000029
:1035C000000C014049534F3134343433412F546F90
:1035D00070617A20284E46432D41205431542920D1
:1035E00054414720666F756E642E205549443A2039
:1035F00025730D0A00000000452D70617065722072
:1036000064657465637465640000000055706461EE
:103610007465206661696C65642C20706C656173EB
:103620006520707265737320616E79206B657920F7
:10363000746F206578697420616E642074727920DB
:10364000616761696E2E0D0A000000005374657099
:10365000310D0A00452D706170657220636F6E66D2
:103660006967000053746570320D0A005374657009
:10367000330D0A0053746570340D0A00537465707D
:10368000350D0A0053746570360D0A008DF80C4034
:103690008DF80D400726FEA031E0AFF2900000F05B
:1036A00039FD02F009FC0E262F71C82058E2FDF703
:1036B00063FBCDF80090CDE90178142303AA022121
:1036C00041A807F0DEF80C23F3A210210520009496
:1036D00007F0CAFD07F0EEFE9DF80C0010B99DF84A
:1036E0000D0030B12879401CC0B228710A28D4D806
:1036F000A0E18DF80C408DF80D400826EBA000F0FD
:1037000009FD2F7196E1FDF737FB687930B101288B
:1037100058D002287DD003287CD054E15FF0000609
:103720008DF80C408DF80D4008A93046FEF73EFF9D
:10373000CDF80090CDE90178142303AA132108A83D
:1037400007F09FF806EB461000EB4001FA20B1FBB2
:10375000F0F0C1B28A46D7A000F0DCFC0A20BAFB28
:10376000F0F1B1FBF0F200FB1211BAFBF0F200FB3A
:1037700012A030318DF8DC1030308DF8DD000C23D4
:10378000D1A210212820009407F06EFD0C2337AA47
:1037900020213A20009407F067FD07F08BFEDFF848
:1037A00034A359465046FDF7BBFC08B1002200E0A7
:1037B000012259465046FDF7B8FC761CB6B2FA2EE7
:1037C000AED300E15FF000068DF80C408DF80D409F
:1037D00008A93046FEF7EAFECDF80090CDE9017861
:1037E000142303AA132108A807F04BF806EB461090
:1037F00000EB40004FF49471B0FBF1F0C1B28A4687
:10380000ACA000F087FC0A20BAFBF0F1B1FBF0F2AB
:1038100001E030E082E000FB1211BAFBF0F200FBA5
:1038200012A030318DF8DC1030308DF8DD000C2323
:10383000A5A210212820009407F016FD0C2337AA1A
:1038400020213A20009407F00FFD07F033FEDFF847
:1038500084A259465046FDF763FC08B1002200E0FF
:10386000012259465046FDF760FC761CB6B2B6F50B
:10387000947FA9D3A7E000268DF80C408DF80D4069
:1038800008A93046FEF792FECDF80090CDE9017808
:10389000142303AA672108A806F0F3FF06EB4610DD
:1038A00000EB40019620B1FBF0F0C1B28A4681A046
:1038B00000F030FC0A20BAFBF0F1B1FBF0F200FBA3
:1038C0001211BAFBF0F200FB12A030318DF8DC10BF
:1038D00030308DF8DD000C237BA2102128200094CD
:1038E00007F0C2FC0C2337AA20213A20009407F0ED
:1038F000BBFC07F0DFFDDFF8DCA159465046FDF7C1
:103900000FFC08B1002200E0012259465046FDF7A5
:103910000CFC761CB6B2962EAED354E05FF00006D7
:103920008DF80C408DF80D4008A93046FEF73EFE9C
:10393000CDF80090CDE90178142303AA7B2108A8D3
:1039400006F09FFF06EB461000EB40004FF4C871F5
:10395000B0FBF1F0C1B28A4656A000F0DBFB0A20B2
:10396000BAFBF0F1B1FBF0F200FB1211BAFBF0F27E
:1039700000FB12A030318DF8DC1030308DF8DD0006
:103980000C2351A210212820009407F06DFC0C2379
:1039900037AA20213A20009407F066FC07F08AFD40
:1039A000DFF830A159465046FDF7BAFB08B10022B6
:1039B00000E0012259465046FDF7B7FB761CB6B22F
:1039C000B6F5C87FACD38DF80C408DF80D400926B4
:1039D00041A02DE0CDF80090CDE90178142303AA91
:1039E000022142A806F04DFF9DF80C0010B99DF889
:1039F0000D00B0B12879401CC0B228710A2811D935
:103A0000AFF2F83000F086FB02F056FA2F714FF457
:103A1000FA70FDF775FA0122D1022E48FDF785FBF9
:103A200000E02F718DF80C408DF80D400A262CA077
:103A300000F070FBDFF89CA059465046FDF770FB84
:103A400000287CD000225946224806E1CDF800909B
:103A5000CDE90178142303AA022143A806F011FF3F
:103A60009DF80C0010B99DF80D0080B12879401C1C
:103A7000C0B228710A2842D9AFF2704000F04AFB68
:103A800002F01AFA2F714FF4FA702FE0ECE035E0F3
:103A900053746570370D0A00537461727420646149
:103AA0007461207472616E73666572005374657020
:103AB000380D0A0050726F726573733A20256420C6
:103AC00025250D0A0000000050726F677265737340
:103AD0003A000000000C014053746570390D0A0073
:103AE0005374657031300D0A00000000FDF708FACC
:103AF0000122D1025D48FDF718FB00E02F718DF81F
:103B00000C408DF80D400B2659A067E0FDF734F905
:103B10004FEA08068DF80C408DF80D40CDF8009066
:103B2000CDE90176142303AA022144A806F0A9FED8
:103B3000FDF722F99DF80C00FF2804D100E089E090
:103B40009DF80D00A0B12879462821D9AFF2445044
:103B500000F0E0FA02F0B0F90E262F714FF4FA707F
:103B6000FDF7CEF90122D1024048FDF7DEFA69E700
:103B700042A000F0CFFA0C2346A210210A200094A4
:103B800007F072FB07F096FC2F710C2646A025E08B
:103B9000401C287147A000F0BDFA0C2302E00DE0A4
:103BA0001FE03FE04BA210210820009407F05CFBCF
:103BB0006420FDF7A5F907F07DFCABE7CDF8009098
:103BC000CDE90178142303AA022145A806F059FE85
:103BD0008DF80C408DF80D400D2648A000F09AFAA3
:103BE0003FE48DF80C408DF80D400E2643A000F008
:103BF00091FA45A000F08EFA48A000F08BFAFDF78C
:103C0000BBF80C234BA220210020009407F02CFBD2
:103C10000C234EA210210A20009407F025FB07F088
:103C200049FC13E404F0C2FAFEF762FC6870002855
:103C30009DD00E4E00224FF400613046FDF775FA1C
:103C4000002259463046FDF770FAAC70012047B0AB
:103C5000BDE8F08F012259465046FDF766FA002E66
:103C60003FF4D5AAFFF71BBB0020F0E7000C014092
:103C70005374657031310D0A00000000452D7061EC
:103C8000706572205265666C617368204F4B0D0A37
:103C900000000000452D7061706572205265666CF1
:103CA000617368204F4B00005374657031320D0A08
:103CB00000000000452D7061706572205265666CD1
:103CC000617368696E672C2057616974696E670D4E
:103CD0000A000000452D7061706572205265666CA7
:103CE000617368696E672C202020202020202057D7
:103CF000616974696E672E2E2E0000005374657022
:103D000031330D0A00000000452D7061706572208E
:103D1000555064617465204F4B0D0A0050726573F5
:103D20007320616E79206B657920746F20657869E6
:103D3000740D0A00507265737320616E79206B6593
:103D40007920746F2065786974000000452D7061DA
:103D500070657220555064617465204F4B000000FF
:103D6000FDF7EEB930B58FB028216846FCF701FAAF
:103D700014210AA8FCF7FDF901210804CDE900107F
:103D80000024029402250491CDE907504FF4E0107D
:103D900009906846FDF768FB00B1FEE70F20CDE90A
:103DA0000A054FF48060CDE90C4002210AA80E9468
:103DB000FDF76EFA002800D0FEE70FB030BD00001E
:103DC0000D48016841F00101016041680B4A114052
:103DD000416001680A4A11400160016821F48021B4
:103DE0000160416821F4FE0141604FF41F018160D0
:103DF0000449C00308607047001002400000FFF84B
:103E0000FFFFF6FE08ED00E00148FEF78CB8000069
:103E1000DC050020F0B50268164B174C174D4FF02B
:103E20008047984205D0B84203D0A04201D0A842B2
:103E300003D122F070064A683243984205D0B84256
:103E400003D0A04201D0A84203D122F44074CA6832
:103E500022434C6922F08002224302608A68C262D7
:103E60000A688262984201D10969016301214161B6
:103E7000F0BD0000002C014000040040000800409C
:103E800010B5846842EA032224F47F440A432243A3
:103E9000826010BD826822F070020A4342F007017E
:103EA0008160704710B5036A046A24F0010404625B
:103EB000846924F0F00444EA021423F00A020A435D
:103EC0008461026210BD10B5036A23F0100303621F
:103ED0008369046A23F4704343EA023224F0A003A6
:103EE00043EA01118261016210BD00002DE9F04139
:103EF000044600680169E26821F440511143016100
:103F00002169A0680843616908432168CA6841F2D1
:103F10000C639A430243CA6020684169A26921F494
:103F20004071114341611E49206864253226884250
:103F300002D1FDF753FA01E0FDF740FA00EBC001B2
:103F400001EB001160686FF018078000B1FBF0F220
:103F5000B2FBF5F2B1FBF0F37A4303EB8202B1FB63
:103F6000F0F306EB0212B2FBF5F2B3FBF5F302F04D
:103F7000F00202EB0312B1FBF0F3B1FBF0F0B0FB87
:103F8000F5F0784303EB800006EB0010B0FBF5F092
:103F9000216800F00F0010448860BDE8F081000047
:103FA000003801402DE9F041984617460E46044678
:103FB000069D1DE0681C1BD02DB1FDF7BBF8A0EBE2
:103FC0000800A84214D92068C16821F4D071C160EA
:103FD0002068416921F001014161202084F8390005
:103FE00084F83A00002084F838000320BDE8F0810E
:103FF0002068006836EA000004D00020B842D9D01A
:104000000020F3E70120F9E710B5064C01202070ED
:10401000FCF76EF918B9207820F0010020702078A4
:1040200010BD00000800002010B5124890B01446E2
:104030000078C00702D0032010B010BDB9B101292B
:1040400005D0022908D003290CD00420F4E76846E3
:10405000FCF704F90E9809E06846FCF7FFF80F98A2
:10406000208004E06846FCF7F9F80F9820600020F3
:10407000E2E70000080000202DE9F0411E46174647
:1040800008460125094C0A4B32463946FCF746F9E9
:1040900028B109E0641E02D20120BDE8F081FCF7DE
:1040A0000DF90028F6D100252846F6E7A086010084
:1040B00000E1F50510B5064C01202070FCF7FEF874
:1040C00018B9207820F001002070207810BD000081
:1040D000080000202DE9F0411E461746084601253C
:1040E000094C0A4B32463946FCF77CF928B109E005
:1040F000641E02D20120BDE8F081FCF7DFF8002841
:10410000F6D100252846F6E7A086010000E1F50576
:10411000FEE700000FB4054B10B503A9044A02984E
:1041200000F028F810BC5DF814FB0000496200089C
:10413000F00000200907090E002804DB00F1E02050
:1041400080F80014704700F00F0000F1E02080F8C4
:10415000141D704702E008C8121F08C1002AFAD1D6
:1041600070477047002001E001C1121F002AFBD1F7
:10417000704700002DE9FF4F8BB09A460F46054669
:10418000002606E025280BD052460D9990476D1C5D
:10419000761C28780028F5D10FB03046BDE8F08FA6
:1041A0000024A0460122604900E0044315F8013FC5
:1041B000203B02FA03F00842F7D128782E2817D1C5
:1041C00015F8010F44F004042A280ED06FF02F02D6
:1041D0002878A0F1300109290AD808EB880102EB00
:1041E000410100EB01086D1CF2E757F8048B6D1CD0
:1041F000287869283ED006DC0028CDD063280BD073
:10420000642804D136E0732810D075284BD052466C
:104210000D999047761C85E017F8040B8DF8000087
:1042200000208DF80100E946012003E057F8049BC7
:104230004FF0FF3061074FF0000401D40AE0641C26
:1042400044450DDA8442FADB19F804100029F6D14E
:1042500006E0641C8442FCDB19F804100029F8D144
:10426000264404E019F8010B52460D999047641E4C
:10427000F8D257E001CF4FF00A0B002802DA404293
:104280002D2102E0210504D52B218DF824100121D8
:1042900003E0E10705D02021F7E70DF1200908919F
:1042A0000CE00021F9E701CF4FF00A0BF9E759467E
:1042B000FBF7A5FF01F1300209F8012D0028F6D126
:1042C000ADEB090000F1200B600701D44FF00108AD
:1042D000D84502DDA8EB0B0000E00020804600245A
:1042E00006E009A85246005D0D999047641C761CB3
:1042F00008988442F5DB04E0302052460D9990473F
:10430000761CB8F10001A8F10108F5DC05E019F808
:10431000010B52460D999047761CBBF10001ABF1A1
:10432000010BF4DC6D1C34E70928010010B50446CC
:10433000002084F80402401EC4F82C02204602F03B
:10434000AFFF08B1032010BDB4F8FE01A0F52A416B
:10435000553901D0022010BD94F83600B4F837105A
:1043600040EA01210848B0EB012F08D094F8521020
:10437000B4F8532041EA0221B0EB012F01D1002013
:1043800010BD012010BD00000046415400E0401C5B
:1043900002780AB18A42FAD1D0B27047F0B5002251
:1043A000184B144602EB420653F8265085B1D0F85C
:1043B0000072BD420DD103EB8605D0F808626F682C
:1043C000B74206D12D89B0F80662B54204D000E0AC
:1043D0000124521C022AE5D3022A01D079B904E053
:1043E0005CB9022909D01220F0BD02EB420003EBB8
:1043F00080004089B0F5807F01D00020F0BD102002
:10440000F0BD0000F811002030B50021064A0C462E
:1044100001EB410352F82350854201D142F8234079
:10442000491C0229F4D330BDF8110020D0F8242211
:10443000D0F80002490A90F80202B1FBF0F0121D18
:1044400002CA19B1884203D3401AF8E70020704726
:10445000116808447047D0F81422891E921E8A42BF
:1044600001D800207047D0F8282290F8020201FB02
:10447000002070472DE9F0410F00054606D001F0FD
:1044800057FF02280BD20120BDE8F081D5F80C625D
:104490001EB1D5F81402B04208D8012606E0411C2E
:1044A000F2D0D5F814128142EED83E463446D5F803
:1044B0001402641CA04202D80224022E0AD3214610
:1044C000284601F035FF38B1411CDDD00128DBD092
:1044D000B442ECD10020D7E76FF070422146284665
:1044E00003F02AFC30B957B122463946284603F07A
:1044F00023FC20B1012812D001242046C4E7C5F8CE
:104500000C42D5F81002411CF7D0401EC5F810022D
:1045100095F8050240F0010085F80502EDE74FF03F
:10452000FF34EAE72DE9F84F884682460D6800E03F
:104530006D1C28782F28FBD05C28F9D00024DAF8ED
:1045400020722646A85D761C202817D32F2815D068
:104550005C2813D0FF2C32D2012101F0E1FC5FEA8C
:1045600000092CD0B9F1800F04D2014668A0FFF7F2
:104570000DFF20BB27F81490641CE3E7AA19C8F8C4
:104580000020202801D2042517E0002515E000BFF7
:1045900007EB440030F8020C20280DD02E280BD059
:1045A0006CB1002027F814000B222021DAF8180241
:1045B00002F06FFE002606E0641E002CE8D1062003
:1045C000BDE8F88F761C37F816002028FAD02E2880
:1045D000F8D01EB145F0030500E0641E2CB107EBD6
:1045E000440030F8020C2E28F7D1002081464FF00D
:1045F000080B009037F8160006F101065FEA000884
:1046000024D0B8F1200F04D0B8F12E0F04D1A64267
:1046100002D045F00305EDE70098584501D2A642C7
:104620001AD1BBF10B0F0FD0A64201D045F0030504
:104630000CD84FF0080000904FEA896026464FF0F2
:104640000B0B4FEA1069D5E745F00305DAF81802BD
:104650000178E52938D039E04046B8F1800F10D311
:10466000002101F05DFC5FEA000805D02B4901EB59
:10467000080010F8800C804645F00205B8F1000FE4
:1046800004D0014626A0FFF781FE20B14FF05F085D
:1046900045F003050FE0A8F14100192802D849F0C0
:1046A000020908E0A8F16100192804D8413049F056
:1046B00001091FFA80F8DAF81822009902F801803F
:1046C0000098401C009095E705210170BBF1080F90
:1046D00003D14FEA89604FEA1069C9F381000328CA
:1046E00003D06FEA0901890701D145F00205A90746
:1046F00009D409F00301012901D145F01005012871
:1047000001D145F00805DAF81802C572002057E714
:10471000222A3A3C3E3F7C7F0000000056BF000842
:104720002B2C3B3D5B5D0000401E022815D20C4B3C
:1047300000EB400203EB82014889B0F5807F05D091
:1047400008B1401E80B2488110B104E00020FAE7B1
:10475000002043F82200002070470220704700002C
:10476000F811002010B586B01C4601908DF8081095
:1047700000208DF80B008DF80C008DF809008DF8E5
:104780000A0014208DF814000948049003218DF8C4
:1047900000200E208DF80D108DF8010004F062FC51
:1047A00022460221684604F083FC06B010BD0000DA
:1047B0004D0000202DE9FF413E4E01213046FCF71F
:1047C000AFFC01273C4C002528B104213046FCF702
:1047D000A7FC60B112E0607880F001006070A57005
:1047E00001213046FCF79CFC0028F9D006E0277038
:1047F00004213046FCF794FC0028F9D02E48A1781B
:10480000401D4FF49676405C70B1012823D00228F9
:1048100027D0032806D106F08DFB002802D006F031
:104820005FFCA770BDE8FF8103F0C0FC06F058FCF8
:104830003046FCF765FB607838B120A0FFF76AFCD2
:10484000002006F083FB032003E0A078401C00F06A
:104850000300A070E6E700F019F92820FCF750FBF0
:10486000F3E700F05BF900F011FA8DF80C5005F059
:1048700068FE03F0A9FC002005F0B0FD88B903AA8A
:104880006946012005F0BEFD58B99DF80C0040B105
:1048900008210DF1010001F02FFE01460DA0FFF7E8
:1048A00039FC00F055FA00F0BFFA3046FCF728FB5F
:1048B000A570B7E7001001402E000020476F696E19
:1048C0006720746F2057616B657570206D6F64652C
:1048D0002E0D0A0053543235544220636172642015
:1048E000666F756E642E205549443A2025730D0A73
:1048F000000000002DE9F0478EB09A46DDE91676FB
:104900002E4B89460593ADF8182090F84A108DF883
:10491000341050F8301F0A9141680B91408AADF86D
:104920003000FF20ADF8320003F20340CDE9070666
:10493000154600F203400990FF2D01D82A4601E0F8
:104940004FF480724946D81CFBF7ECFB142209A9EE
:104950006846FBF7E7FB05AC94E80F0004F0FEF9AE
:1049600006F0DAFB03F07EFF04460228F8D00CB113
:1049700013A004E007983188C01C01F0BDFD8046FB
:104980002946484601F0B8FD02460CB10DA100E0F1
:104990000EA143460EA0FFF7BDFB1CB120460EB092
:1049A000BDE8F0873288BA4200D33A4607995046AC
:1049B000C91CFBF7B7FB0020F1E700005C060020F4
:1049C000000000004641494C000000004F4B000031
:1049D0002049534F2D444550205478527820257358
:1049E0003A202D2054783A2025732052783A2025F9
:1049F00073200D0A00000000F0B589B01E46DDE905
:104A00000E75214B4FF0000E03F20344CDE9024531
:104A10000093ADF804208DF81EE090F810C0CCF3A0
:104A2000011C4FEA8C1C0CF1400CBCF1FE0F01D3B1
:104A30004FF0FE0CADF81CC0D0F848C0CDF814C043
:104A4000C06C069008A804908DF806E0FE2A00D3FA
:104A5000FE22581DFBF766FB684604F0D7FB00BF3B
:104A600006F05AFB04F0F6FA0228F9D0002808D123
:104A70002A88BA4200D33A46611D3046FBF752FB02
:104A8000002009B0F0BD00005C06002010B5022235
:104A90001146092005F0E0FB012005F0B5FB4020A0
:104AA00005F0B8FB002005F0BFFB0E4805F0C8FB81
:104AB00003F08AFB0C4B01220A210C48FFF752FE3F
:104AC00018B103F073FB002010BD07480A21801CB9
:104AD00001F012FD014606A0FFF71CFB00F028FACA
:104AE000012010BD10350600680F00204300002093
:104AF0004E464320416374697665205032502064ED
:104B0000657669636520666F756E642E204E464338
:104B10004944333A2025730D0A00000010B588B0CF
:104B2000002404F06DFC03F04FFB07A9002004F003
:104B30007BFD00284BD106AB6A46012104F0B3FB94
:104B4000002844D19DF81800002840D09DF800109E
:104B500001246846012912D09DF80410401D01F07F
:104B6000CBFC01461BA000BFFFF7D4FA9DF8000064
:104B700040280BD0602809D020281AD027E0042133
:104B8000113001F0B9FC01461CA0EDE7284B0022D2
:104B90000A212848FFF7E6FDC8B925480A21801CEC
:104BA00001F0AAFC014624A0FFF7B4FA00F0C0F916
:104BB0000DE003F0D9FE1E4B02220021082003F075
:104BC00035FF20B927A0FFF7A5FA00F06DF908B06E
:104BD000204610BD49534F3134343433412F4E46B3
:104BE000432D41206361726420666F756E642E20D0
:104BF0005549443A2025730D0A00000049534F31AE
:104C000034343433412F546F70617A20284E464338
:104C10002D4120543154292054414720666F756E30
:104C2000642E205549443A2025730D0A00000000E7
:104C3000680F0020430000204E464341205061731E
:104C4000736976652050325020646576696365200B
:104C5000666F756E642E204E464349443A20257394
:104C60000D0A000049534F31343434332D342F4969
:104C7000534F2D444550206C6179657220616374F7
:104C80006976617465642E200D0A000070B58AB0E3
:104C900000252C468DF8205004F02CFE03F094FAE9
:104CA00008AB04AA0121002004F028FD04AE58B985
:104CB0009DF8200040B101250421B01C01F01CFC2E
:104CC00001460EA0FFF726FA9DF81B00C00712D080
:104CD00003F04AFE1348CDE90064CDE90240002309
:104CE00002221946082003F059FF20B90EA0FFF751
:104CF00011FA00F0D9F80AB0284670BD49534F3177
:104D000034343433422F4E46432D42206361726463
:104D100020666F756E642E205549443A2025730D28
:104D20000A000000680F002049534F3134343433F7
:104D30002D342F49534F2D444550206C61796572B5
:104D4000206163746976617465642E200D0A000029
:104D500030B587B000208DF814000446012004F01F
:104D600021FF03F031FA04F0B7FE00282ED105AB85
:104D70006A46012104F0C4FE002827D19DF81400E2
:104D8000002823D06D4601240821A81C01F0B4FBA3
:104D9000014610A0FFF7BEF99DF80200012815D1C9
:104DA0009DF80300FE2811D1134B00220A21A81CF4
:104DB000FFF7D8FC50B910480A21801C01F09CFB79
:104DC00001460EA0FFF7A6F900F0B2F807B02046A2
:104DD00030BD000046656C6963612F4E46432D4629
:104DE000206361726420666F756E642E205549449D
:104DF0003A2025730D0A0000680F00204E464346F6
:104E00002050617373697665205032502064657656
:104E100069636520666F756E642E204E4643494473
:104E20003A2025730D0A000010B586B000248DF8D5
:104E3000104004F075FF03F0C7F904AA6946012089
:104E400004F0DBFEC0B99DF81000A8B10DF1090116
:104E50006A46C81F05E003780C7800F8014B01F89A
:104E600001398842F7D301240821901C01F044FB4A
:104E7000014603A0FFF74EF906B0204610BD000022
:104E800049534F31353639332F4E46432D56206323
:104E900061726420666F756E642E205549443A2015
:104EA00025730D0A000000003EB502ACFF25154B2E
:104EB000CDE900540D22144903F20950FFF71AFD01
:104EC00000281DD10F480178902919D14078002879
:104ED00016D10EA0FFF71EF90A4B0B49CDE900547D
:104EE0000722253903F20950FFF704FD054B064957
:104EF000CDE9005405222A3903F20950FFF7FAFCE4
:104F00003EBD00005F0A0020610000202053656C58
:104F1000656374204E44454620417070207375636C
:104F20006365737366756C6C79200D0A0000000070
:104F3000FEB50026ADF8086020A0FFF7EBF8254B82
:104F400002ADFF241A22244903F20950CDE900459D
:104F5000FFF752FD08B121A02DE022A0FFF7DAF8FB
:104F6000ADF8086023A0FFF7D5F81A4B1A492222A2
:104F70001A3103F20950CDE90045FFF73DFD002845
:104F8000E9D118A0FFF7C6F822A0FFF7C3F8114B2C
:104F9000114902223D3903F20950CDE90045FFF7DE
:104FA0002BFD064626A0FFF7B5F83220FBF7A8FF39
:104FB000002EECD023A0FFF7ADF8FEBD20496E69AE
:104FC00074616C697A6520646576696365202E2E4C
:104FD000200000005F0A00206E0000206661696CFE
:104FE00065642E007375636365656465642E0D0AE0
:104FF000000000002050757368204E44454620553F
:1050000072693A207777772E53542E636F6D202E76
:105010002E200000204465766963652070726573F8
:10502000656E742C206D61696E7461696E696E675E
:1050300020636F6E6E656374696F6E200000000000
:105040002E0000000D0A20446576696365207265B4
:105050006D6F7665642E0D0A000000002DE9FC5F7F
:105060000546002100F098FA00286ED1FF204FF687
:10507000FF7A00908146A5F824A200BFD5F810124F
:10508000D5F8000202F00CF906000ED1D5F8144252
:10509000207848B1E17AE52801F03F0170D00A0795
:1050A00004D50F296CD107E0042674E00F2903D042
:1050B000B9F1000F4DD052E0D5F8201291B342065D
:1050C00008D5627B009220F04000B5F806228146A8
:1050D000A5F82422484534D1627B0098824230D121
:1050E00001912078A04620F04000401E00EB800196
:1050F0000027DFF8A8B001EBC00601241BF8071059
:1051000001EB0800008874B100F026FF0446FF2E72
:1051100017D2019830F81600761C00F01DFFA0424F
:105120000FD102E030E050450BD17F1C0D2FE5D3AD
:1051300098F80000400609D544B1019830F81600EF
:1051400020B1FF2000F0FF091EE025E0A9F10100D9
:10515000F8E7204606F032FE009988421BD0D5F8C9
:105160001802C17AC9070BD10A2101E0491E06D3F2
:1051700014F8012B10F8013BD21AF7D000E052B11D
:105180004FF0FF09A5F824A20021284600F008F8F6
:1051900006003FF473AF3046BDE8FC9FD6BF000861
:1051A0002DE9F041B0F806620446761C30040F4643
:1051B000000C37D0D4F8100298B3310773D1401CDB
:1051C000C4F81002D4F80C12D4F8000231B190F8EF
:1051D0000222521E12EA161F05D064E0B0F808023F
:1051E000B0421FD95FE001F0A3F8054601281ED99F
:1051F000681C3AD0D4F80002D0F81412A94249D859
:105200007FB1D4F80C12FFF735F905000DD0012D50
:105210000DD0681C29D0D4F8000206F037FE20BB60
:1052200007E0FFE70420BDE8F0810720FBE702204C
:10523000F9E74FF400720021D4F8000202F029F8D7
:105240002946D4F80002FFF706F9D4F80012002727
:105250004FF00108C1F82C0211E000BF80F8048271
:10526000D4F8000206F012FE08B10120DBE7D4F802
:105270000002D0F82C12491C7F1CC0F82C12D4F864
:10528000000290F80212B942E8D8D0F82C12C91BDB
:10529000C0F82C12C4F80C522946D4F80002FFF7CB
:1052A000DAF8C4F81002A4F80662D4F8000206F096
:1052B0000F0100EB4110C4F814020020B3E7000016
:1052C0002DE9F05FFF248B460546274604264FF65E
:1052D000FF784FF000096AE0D5F8000201F0E0FF26
:1052E000060069D1D5F81402017879B1C27AE529AE
:1052F00002F03F0208D02E2906D022F02003082B0E
:1053000006D0B446DC4506D0FF2442E0042653E034
:105310004FF0010CF6E70F2A01D0BCBB40E04A0673
:1053200007D5477B21F04001B5F806220C46A5F8C9
:105330002422A1422BD1417BB94228D10178DFF848
:1053400084A001F03F01491E01EB810202EBC10183
:105350000022D5F820C201231AF8026006443688DC
:1053600033B1FF2913D22CF811603346491C01E0F8
:1053700046450CD1521C0D2AEED30078400603D5C9
:10538000FF2904D22CF81190641E01E00CE0FF24E8
:10539000E4B200212846FFF703FF060007D00BE028
:1053A00006F00CFDB84209D0A5F8248206E0D5F835
:1053B0001012002990D10EB1C5F810923046BDE808
:1053C000F09F0000D6BF00082DE9FF5FD0F81872EB
:1053D0000446D0F820620C223946684601F050FF9E
:1053E0009DF80B00C0071AD00020F8720125C4F800
:1053F00020022B4632466946384600F059FF2046C7
:10540000FFF72CFE10B96D1C642DF2D3642D0CD067
:1054100004280BD19DF80B00F872C4F820629DF8A7
:105420000B0080070FD5002004E0072004B0BDE882
:10543000F09F401C36F810100029FAD10D211930C8
:10544000B0FBF1F600E001260021204600F0A4F8B0
:10545000A0B90027D4F81012D4F8000201F020FF00
:1054600060B9D4F814020078E5280AD048B10027C2
:1054700001212046FFF794FE0028EBD0042812D02B
:1054800012E07F1C3046B742F2D1461E5FEA060AA0
:105490005FD0B4F806122046A1EB0A0100F07CF8B8
:1054A000050003D074E00720054671E0D4F8180227
:1054B00006F084FCCDF80C00D4F81012D4F80002E9
:1054C00001F0EEFE050063D1D4F81412D4F8209256
:1054D000039848730F20C8720020087388760AF07A
:1054E000FF0BC876ABF1010000EB800202EBC005B8
:1054F00000234FF6FF7E274E4A1C01E0604503D093
:1055000039F81500F4466D1CF75CC85516F8038091
:10551000070A08F8027000B960465B1C0D2BEDD33A
:10552000704502D039F8150008B94BF0400B81F8EE
:1055300000B0D4F80012012081F8040200212046B6
:10554000FFF72EFE050023D1AAF101005FEA000A51
:10555000B2D1D4F81012D4F8000201F0A1FE050077
:1055600016D1D4F814022022002104F5007401F0B1
:1055700090FED4E905010B2201F082FEA069616969
:10558000C07A00F0180008732168012081F8040235
:1055900028464BE7D6BF000870B5A0F80612D0F831
:1055A00008320D460446012B40D0D4F80002D0F852
:1055B000141299423AD933B990F80012032906D14E
:1055C000D0F824321BB190F80202060114E0B0F8C2
:1055D0000812A9422AD9D0F8240214E000F0A8FE4B
:1055E0000346401C20D0022B20D3D4F80002D0F870
:1055F000140298421AD9AD1BD4F80002B5421946DC
:10560000ECD2FEF728FFC4F80C3278B100EB15108D
:10561000C4F81002D4F8000205F00F0100EB4110AD
:10562000C4F81402002070BD012070BD022070BDBE
:10563000084910B50B5C002253B901220A540A181C
:1056400001EB8000127A40680168104688470246E4
:10565000104610BD1014002030B4054C231804EB84
:1056600080001B7A406804691846A44630BC604735
:105670001014002030B4054D2C1805EB8000247A5E
:10568000406885682046AC4630BC60471014002056
:10569000044A111802EB8000097A40684268084603
:1056A000104700001014002030B4054D2C1805EBF5
:1056B0008000247A4068C5682046AC4630BC60470C
:1056C0001014002010B5044600F09AFB00280DD1FC
:1056D000204606F01BFC002808D1D4F82802FFF76A
:1056E00023F8002802D10021C4F8001210BD0000E8
:1056F0002DE9FC5F0D46044606F008FC5FEA000950
:1057000073D194F8070200286FD1D4F8240201273E
:105710004FF0020A002869D0691C33D0D4F80C027B
:10572000A84200D20546C4F80852002D5CD020469D
:10573000691EFEF77BFE0146C4F81402D4F800028D
:10574000FEF789FE00287CD0D4F800126D1E91F877
:105750000222521E02EA55221518B4F80802C005AA
:10576000E4D0D4F81822AA42E0D094F80602400609
:1057700046D591F8010201232146FFF795FF002845
:1057800074D137E002C80091D4F810128346022584
:1057900009B30026AD1C01918846761CD4F800029E
:1057A00000F0C6FD014601284BD9481C5ED008F127
:1057B00001008142F0D00098854206D8CBF8006005
:1057C0000BF10400019A04C08346D4F80002D0F81B
:1057D00014028842DDD8D4F824020560009885427E
:1057E00005D80021CBF80010C2E09DE016E04FF094
:1057F0001109BDE094F8060220F0400084F806028A
:10580000D4F8000201232A4690F801022146FFF74E
:1058100031FF00282AD1C4F81852A9E0D4F80C02AC
:10582000A84204D294F80612890700D405464FF026
:105830000008D4F80802C4F808824DB3D4F8002256
:1058400000E06EE092F802124E0280B1691E401E26
:10585000B1FBF6F1B0FBF6F3994208D3711E884311
:10586000C4F808022D1AD4F8141210E06EE0D4F82F
:10587000101251B900211046FEF7FCFD0146012827
:105880004FD0481C62D0C4F81012C4F8141211BBD7
:1058900031E000BF94F806028007D4F8000205D575
:1058A000FEF7E8FD010004D1354616E000F040FDAA
:1058B0000146481C4AD0012933D9D4F80002D0F857
:1058C000140288422DD9C4F81412D4F80802AD1B72
:1058D0003044C4F80802B542DCD8D4F808022844A1
:1058E000C4F80802E80506D0D4F80002FEF7B3FDBC
:1058F000B8B100EB5528B4F80802C0052CD0D4F894
:105900001822424528D094F80602400614D5D4F84F
:1059100000020123214690F80102FFF7C5FEA8B955
:1059200004E084F807A20220BDE8FC9F94F8060278
:1059300020F0400084F80602D4F800020123424619
:1059400090F801022146FFF795FE18B184F807721E
:105950000120E9E7C4F81882D4E98201884207D916
:10596000C4F80C0294F8060240F0200084F8060205
:105970004846D9E72DE9F74181B09046029800905A
:10598000684600F09AFD040003D50B2004B0BDE882
:10599000F0810E4E002756F8245025B12846FEF718
:1059A00033FD85F800720198002801D080F800725C
:1059B00046F8240002D0B8F1010F01D00020E5E73D
:1059C000002202A901A800F0D9FADFE7C4000020F4
:1059D0002DE9F747ADF50D7D06000ED04FF000081C
:1059E00002F01F0727F001028EA980A8C6F80082E6
:1059F00000F0C4FA040005D0B7E009200DF5107DD1
:105A0000BDE8F0878AA886905A48889068468E99A3
:105A100000F0E0FB859D04000BD11DB1780803D098
:105A2000012102E0062404E000216846FEF7B6FCEE
:105A3000044617F01C0F60D04FF0010ADCB1042CB3
:105A400014D14C490020183902E0401C022805D22C
:105A500000EB400251F82220002AF6D1022804D09F
:105A60006846FFF7B1FC044600E01224859D47F02C
:105A7000080754B179E0E87A10F0110F01D007243B
:105A800073E0780701D508246FE0380743D500F0AC
:105A9000B0FCA873010AE973010C2974000E687444
:105AA00085F80B8085F81C8085F81D8085F81E80A0
:105AB00085F81F802946809801F0FEFA8146002172
:105AC000284606F073F98099B9F1000F81F804A215
:105AD0001FD080984946D0F82CA202F0A9F9040002
